{
  "contractName": "WillDigitalAsset",
  "abi": [
    {
      "constant": true,
      "inputs": [],
      "name": "name",
      "outputs": [
        {
          "name": "",
          "type": "string"
        }
      ],
      "payable": false,
      "stateMutability": "view",
      "type": "function"
    },
    {
      "constant": true,
      "inputs": [],
      "name": "totalSupply",
      "outputs": [
        {
          "name": "",
          "type": "uint256"
        }
      ],
      "payable": false,
      "stateMutability": "view",
      "type": "function"
    },
    {
      "constant": true,
      "inputs": [],
      "name": "Lawyer",
      "outputs": [
        {
          "name": "",
          "type": "address"
        }
      ],
      "payable": false,
      "stateMutability": "view",
      "type": "function"
    },
    {
      "constant": true,
      "inputs": [
        {
          "name": "",
          "type": "address"
        }
      ],
      "name": "balances",
      "outputs": [
        {
          "name": "",
          "type": "uint256"
        }
      ],
      "payable": false,
      "stateMutability": "view",
      "type": "function"
    },
    {
      "constant": true,
      "inputs": [],
      "name": "decimals",
      "outputs": [
        {
          "name": "",
          "type": "uint8"
        }
      ],
      "payable": false,
      "stateMutability": "view",
      "type": "function"
    },
    {
      "constant": true,
      "inputs": [],
      "name": "symbol",
      "outputs": [
        {
          "name": "",
          "type": "string"
        }
      ],
      "payable": false,
      "stateMutability": "view",
      "type": "function"
    },
    {
      "inputs": [],
      "payable": true,
      "stateMutability": "payable",
      "type": "constructor"
    },
    {
      "payable": false,
      "stateMutability": "nonpayable",
      "type": "fallback"
    },
    {
      "constant": false,
      "inputs": [
        {
          "name": "_address",
          "type": "address"
        },
        {
          "name": "_amount",
          "type": "uint256"
        },
        {
          "name": "_fName",
          "type": "string"
        },
        {
          "name": "_lName",
          "type": "string"
        }
      ],
      "name": "setFamily",
      "outputs": [],
      "payable": false,
      "stateMutability": "nonpayable",
      "type": "function"
    },
    {
      "constant": true,
      "inputs": [],
      "name": "getFamilyAddress",
      "outputs": [
        {
          "name": "",
          "type": "address[]"
        }
      ],
      "payable": false,
      "stateMutability": "view",
      "type": "function"
    },
    {
      "constant": true,
      "inputs": [
        {
          "name": "_address",
          "type": "address"
        }
      ],
      "name": "getFamilyMembers",
      "outputs": [
        {
          "name": "",
          "type": "uint256"
        },
        {
          "name": "",
          "type": "string"
        },
        {
          "name": "",
          "type": "string"
        }
      ],
      "payable": false,
      "stateMutability": "view",
      "type": "function"
    },
    {
      "constant": true,
      "inputs": [],
      "name": "countFamilyAddressDetails",
      "outputs": [
        {
          "name": "",
          "type": "uint256"
        }
      ],
      "payable": false,
      "stateMutability": "view",
      "type": "function"
    },
    {
      "constant": true,
      "inputs": [
        {
          "name": "addr",
          "type": "address"
        }
      ],
      "name": "getBalance",
      "outputs": [
        {
          "name": "",
          "type": "uint256"
        }
      ],
      "payable": false,
      "stateMutability": "view",
      "type": "function"
    },
    {
      "constant": false,
      "inputs": [
        {
          "name": "_to",
          "type": "address"
        },
        {
          "name": "_amount",
          "type": "uint256"
        }
      ],
      "name": "transfer",
      "outputs": [
        {
          "name": "success",
          "type": "bool"
        }
      ],
      "payable": false,
      "stateMutability": "nonpayable",
      "type": "function"
    },
    {
      "constant": false,
      "inputs": [],
      "name": "releaseFamilyToken",
      "outputs": [
        {
          "name": "",
          "type": "bool"
        }
      ],
      "payable": true,
      "stateMutability": "payable",
      "type": "function"
    },
    {
      "constant": false,
      "inputs": [
        {
          "name": "_amount",
          "type": "uint256"
        },
        {
          "name": "_seller",
          "type": "address"
        }
      ],
      "name": "buyToken",
      "outputs": [],
      "payable": true,
      "stateMutability": "payable",
      "type": "function"
    },
    {
      "constant": false,
      "inputs": [
        {
          "name": "_amount",
          "type": "uint256"
        },
        {
          "name": "_buyer",
          "type": "address"
        }
      ],
      "name": "sellTokenInCash",
      "outputs": [],
      "payable": false,
      "stateMutability": "nonpayable",
      "type": "function"
    }
  ],
  "bytecode": "0x60806040526040518060400160405280600281526020017f574300000000000000000000000000000000000000000000000000000000000081525060009080519060200190620000519291906200018d565b506040518060400160405280600881526020017f57696c6c436f696e000000000000000000000000000000000000000000000000815250600190805190602001906200009f9291906200018d565b50620f42406002556012600360006101000a81548160ff021916908360ff16021790555033600360016101000a81548173ffffffffffffffffffffffffffffffffffffffff021916908373ffffffffffffffffffffffffffffffffffffffff16021790555060025460046000600360019054906101000a900473ffffffffffffffffffffffffffffffffffffffff1673ffffffffffffffffffffffffffffffffffffffff1673ffffffffffffffffffffffffffffffffffffffff168152602001908152602001600020819055506000600360156101000a81548160ff0219169083151502179055506200023c565b828054600181600116156101000203166002900490600052602060002090601f016020900481019282601f10620001d057805160ff191683800117855562000201565b8280016001018555821562000201579182015b8281111562000200578251825591602001919060010190620001e3565b5b50905062000210919062000214565b5090565b6200023991905b80821115620002355760008160009055506001016200021b565b5090565b90565b6115ac806200024c6000396000f3fe6080604052600436106100e75760003560e01c806380f8723c1161008a578063a9059cbb11610059578063a9059cbb146105be578063bf2b22c514610631578063f8b2cb4f1461076e578063f95c0459146107d3576100e7565b806380f8723c1461032c5780639134709e1461035757806395d89b41146103a5578063964b96e614610435576100e7565b806318160ddd116100c657806318160ddd1461021457806322ec7ea11461023f57806327e235e314610296578063313ce567146102fb576100e7565b806213bfe4146100f6578063011b319d1461011857806306fdde0314610184575b3480156100f357600080fd5b50005b6100fe61082e565b604051808215151515815260200191505060405180910390f35b34801561012457600080fd5b5061012d6109d6565b6040518080602001828103825283818151815260200191508051906020019060200280838360005b83811015610170578082015181840152602081019050610155565b505050509050019250505060405180910390f35b34801561019057600080fd5b50610199610a64565b6040518080602001828103825283818151815260200191508051906020019080838360005b838110156101d95780820151818401526020810190506101be565b50505050905090810190601f1680156102065780820380516001836020036101000a031916815260200191505b509250505060405180910390f35b34801561022057600080fd5b50610229610b02565b6040518082815260200191505060405180910390f35b34801561024b57600080fd5b50610254610b08565b604051808273ffffffffffffffffffffffffffffffffffffffff1673ffffffffffffffffffffffffffffffffffffffff16815260200191505060405180910390f35b3480156102a257600080fd5b506102e5600480360360208110156102b957600080fd5b81019080803573ffffffffffffffffffffffffffffffffffffffff169060200190929190505050610b2e565b6040518082815260200191505060405180910390f35b34801561030757600080fd5b50610310610b46565b604051808260ff1660ff16815260200191505060405180910390f35b34801561033857600080fd5b50610341610b59565b6040518082815260200191505060405180910390f35b6103a36004803603604081101561036d57600080fd5b8101908080359060200190929190803573ffffffffffffffffffffffffffffffffffffffff169060200190929190505050610b66565b005b3480156103b157600080fd5b506103ba610d32565b6040518080602001828103825283818151815260200191508051906020019080838360005b838110156103fa5780820151818401526020810190506103df565b50505050905090810190601f1680156104275780820380516001836020036101000a031916815260200191505b509250505060405180910390f35b34801561044157600080fd5b506105bc6004803603608081101561045857600080fd5b81019080803573ffffffffffffffffffffffffffffffffffffffff169060200190929190803590602001909291908035906020019064010000000081111561049f57600080fd5b8201836020820111156104b157600080fd5b803590602001918460018302840111640100000000831117156104d357600080fd5b91908080601f016020809104026020016040519081016040528093929190818152602001838380828437600081840152601f19601f8201169050808301925050505050505091929192908035906020019064010000000081111561053657600080fd5b82018360208201111561054857600080fd5b8035906020019184600183028401116401000000008311171561056a57600080fd5b91908080601f016020809104026020016040519081016040528093929190818152602001838380828437600081840152601f19601f820116905080830192505050505050509192919290505050610dd0565b005b3480156105ca57600080fd5b50610617600480360360408110156105e157600080fd5b81019080803573ffffffffffffffffffffffffffffffffffffffff16906020019092919080359060200190929190505050610f64565b604051808215151515815260200191505060405180910390f35b34801561063d57600080fd5b506106806004803603602081101561065457600080fd5b81019080803573ffffffffffffffffffffffffffffffffffffffff1690602001909291905050506110f3565b604051808481526020018060200180602001838103835285818151815260200191508051906020019080838360005b838110156106ca5780820151818401526020810190506106af565b50505050905090810190601f1680156106f75780820380516001836020036101000a031916815260200191505b50838103825284818151815260200191508051906020019080838360005b83811015610730578082015181840152602081019050610715565b50505050905090810190601f16801561075d5780820380516001836020036101000a031916815260200191505b509550505050505060405180910390f35b34801561077a57600080fd5b506107bd6004803603602081101561079157600080fd5b81019080803573ffffffffffffffffffffffffffffffffffffffff169060200190929190505050611304565b6040518082815260200191505060405180910390f35b3480156107df57600080fd5b5061082c600480360360408110156107f657600080fd5b8101908080359060200190929190803573ffffffffffffffffffffffffffffffffffffffff16906020019092919050505061134d565b005b6000600360019054906101000a900473ffffffffffffffffffffffffffffffffffffffff1673ffffffffffffffffffffffffffffffffffffffff163373ffffffffffffffffffffffffffffffffffffffff16146108d6576040517f08c379a000000000000000000000000000000000000000000000000000000000815260040180806020018281038252602581526020018061155c6025913960400191505060405180910390fd5b6001600360156101000a81548160ff0219169083151502179055506000600680549050905060008090505b818110156109d1576109c36006828154811061091957fe5b9060005260206000200160009054906101000a900473ffffffffffffffffffffffffffffffffffffffff16600560006006858154811061095557fe5b9060005260206000200160009054906101000a900473ffffffffffffffffffffffffffffffffffffffff1673ffffffffffffffffffffffffffffffffffffffff1673ffffffffffffffffffffffffffffffffffffffff16815260200190815260200160002060000154610f64565b508080600101915050610901565b505090565b60606006805480602002602001604051908101604052809291908181526020018280548015610a5a57602002820191906000526020600020905b8160009054906101000a900473ffffffffffffffffffffffffffffffffffffffff1673ffffffffffffffffffffffffffffffffffffffff1681526020019060010190808311610a10575b5050505050905090565b60018054600181600116156101000203166002900480601f016020809104026020016040519081016040528092919081815260200182805460018160011615610100020316600290048015610afa5780601f10610acf57610100808354040283529160200191610afa565b820191906000526020600020905b815481529060010190602001808311610add57829003601f168201915b505050505081565b60025481565b600360019054906101000a900473ffffffffffffffffffffffffffffffffffffffff1681565b60046020528060005260406000206000915090505481565b600360009054906101000a900460ff1681565b6000600680549050905090565b600060029050600360019054906101000a900473ffffffffffffffffffffffffffffffffffffffff1673ffffffffffffffffffffffffffffffffffffffff163373ffffffffffffffffffffffffffffffffffffffff161415610c13576040517f08c379a00000000000000000000000000000000000000000000000000000000081526004018080602001828103825260248152602001806115386024913960400191505060405180910390fd5b66038d7ea4c68000818402023414610c93576040517f08c379a00000000000000000000000000000000000000000000000000000000081526004018080602001828103825260128152602001807f56616c7565206f662074686520746f6b656e000000000000000000000000000081525060200191505060405180910390fd5b82600460008473ffffffffffffffffffffffffffffffffffffffff1673ffffffffffffffffffffffffffffffffffffffff1681526020019081526020016000206000828254039250508190555082600460003373ffffffffffffffffffffffffffffffffffffffff1673ffffffffffffffffffffffffffffffffffffffff16815260200190815260200160002060008282540192505081905550505050565b60008054600181600116156101000203166002900480601f016020809104026020016040519081016040528092919081815260200182805460018160011615610100020316600290048015610dc85780601f10610d9d57610100808354040283529160200191610dc8565b820191906000526020600020905b815481529060010190602001808311610dab57829003601f168201915b505050505081565b600360019054906101000a900473ffffffffffffffffffffffffffffffffffffffff1673ffffffffffffffffffffffffffffffffffffffff163373ffffffffffffffffffffffffffffffffffffffff1614610e76576040517f08c379a000000000000000000000000000000000000000000000000000000000815260040180806020018281038252602581526020018061155c6025913960400191505060405180910390fd5b6000600560008673ffffffffffffffffffffffffffffffffffffffff1673ffffffffffffffffffffffffffffffffffffffff168152602001908152602001600020905083816000018190555082816001019080519060200190610eda929190611492565b5081816002019080519060200190610ef3929190611492565b50600160068690806001815401808255809150509060018203906000526020600020016000909192909190916101000a81548173ffffffffffffffffffffffffffffffffffffffff021916908373ffffffffffffffffffffffffffffffffffffffff16021790555050505050505050565b600081600460003373ffffffffffffffffffffffffffffffffffffffff1673ffffffffffffffffffffffffffffffffffffffff1681526020019081526020016000205410158015610fb55750600082115b80156110405750600460008473ffffffffffffffffffffffffffffffffffffffff1673ffffffffffffffffffffffffffffffffffffffff1681526020019081526020016000205482600460008673ffffffffffffffffffffffffffffffffffffffff1673ffffffffffffffffffffffffffffffffffffffff1681526020019081526020016000205401115b156110e85781600460003373ffffffffffffffffffffffffffffffffffffffff1673ffffffffffffffffffffffffffffffffffffffff1681526020019081526020016000206000828254039250508190555081600460008573ffffffffffffffffffffffffffffffffffffffff1673ffffffffffffffffffffffffffffffffffffffff16815260200190815260200160002060008282540192505081905550600190506110ed565b600090505b92915050565b6000606080600560008573ffffffffffffffffffffffffffffffffffffffff1673ffffffffffffffffffffffffffffffffffffffff16815260200190815260200160002060000154600560008673ffffffffffffffffffffffffffffffffffffffff1673ffffffffffffffffffffffffffffffffffffffff168152602001908152602001600020600101600560008773ffffffffffffffffffffffffffffffffffffffff1673ffffffffffffffffffffffffffffffffffffffff168152602001908152602001600020600201818054600181600116156101000203166002900480601f0160208091040260200160405190810160405280929190818152602001828054600181600116156101000203166002900480156112545780601f1061122957610100808354040283529160200191611254565b820191906000526020600020905b81548152906001019060200180831161123757829003601f168201915b50505050509150808054600181600116156101000203166002900480601f0160208091040260200160405190810160405280929190818152602001828054600181600116156101000203166002900480156112f05780601f106112c5576101008083540402835291602001916112f0565b820191906000526020600020905b8154815290600101906020018083116112d357829003601f168201915b505050505090509250925092509193909250565b6000600460008373ffffffffffffffffffffffffffffffffffffffff1673ffffffffffffffffffffffffffffffffffffffff168152602001908152602001600020549050919050565b600360019054906101000a900473ffffffffffffffffffffffffffffffffffffffff1673ffffffffffffffffffffffffffffffffffffffff163373ffffffffffffffffffffffffffffffffffffffff1614156113f4576040517f08c379a00000000000000000000000000000000000000000000000000000000081526004018080602001828103825260248152602001806115386024913960400191505060405180910390fd5b81600460003373ffffffffffffffffffffffffffffffffffffffff1673ffffffffffffffffffffffffffffffffffffffff1681526020019081526020016000206000828254039250508190555081600460008373ffffffffffffffffffffffffffffffffffffffff1673ffffffffffffffffffffffffffffffffffffffff168152602001908152602001600020600082825401925050819055505050565b828054600181600116156101000203166002900490600052602060002090601f016020900481019282601f106114d357805160ff1916838001178555611501565b82800160010185558215611501579182015b828111156115005782518255916020019190600101906114e5565b5b50905061150e9190611512565b5090565b61153491905b80821115611530576000816000905550600101611518565b5090565b9056fe4c61777965722073686f756c64206e6f742063616c6c20746869732066756e6374696f6e4f6e6c79204c61777965722073686f756c642063616c6c20746869732066756e6374696f6ea165627a7a72305820d3759a2e338b0fd6cdf5e4ee264d6769cbbd51a255b4fca1d215e3349488268f0029",
  "source": "pragma solidity ^0.5.6;\r\n\r\ncontract WillDigitalAsset {\r\n    string public symbol = \"WC\";\r\n    string public name = \"WillCoin\";\r\n    uint public totalSupply = 1000000;\r\n    uint8 public decimals = 18;\r\n    address public Lawyer;\r\n    bool isOwnerDead;\r\n    // key-value pair to store addresses and their account balances\r\n\r\n    mapping (address => uint) public balances;\r\n\r\n    constructor() payable public {\r\n        Lawyer = msg.sender;\r\n        balances[Lawyer] = totalSupply;\r\n        isOwnerDead = false;\r\n    }\r\n    modifier onlyLawyer() {\r\n        require(msg.sender == Lawyer, \"Only Lawyer should call this function\");\r\n        _;\r\n    }\r\n    // Creating a struct for family FamilyMembers\r\n    struct FamilyMem {\r\n        uint amount;\r\n        string fName;\r\n        string lName;\r\n    }\r\n    mapping (address => FamilyMem) FamilyMembers;\r\n    address[] private familyAddressDetails;\r\n\r\n    function setFamily(address _address, uint _amount, string memory _fName, string memory _lName) public onlyLawyer {\r\n            FamilyMem storage Familydetails = FamilyMembers[_address];\r\n            Familydetails.amount = _amount;\r\n            Familydetails.fName = _fName;\r\n            Familydetails.lName = _lName;\r\n            familyAddressDetails.push(_address) - 1;\r\n    }\r\n\r\n     //  function to get familyaddress\r\n\r\n    function getFamilyAddress() public view returns(address[] memory) {\r\n        return familyAddressDetails;\r\n    }\r\n\r\n    // function to get FamilyMembers\r\n\r\n    function getFamilyMembers(address _address) public view  returns (uint, string memory, string memory) {\r\n        return (FamilyMembers[_address].amount, FamilyMembers[_address].fName, FamilyMembers[_address].lName);\r\n    }\r\n\r\n    // function to get familyCount\r\n    function countFamilyAddressDetails() public view  returns (uint) {\r\n        return familyAddressDetails.length;\r\n    }\r\n    function getBalance(address addr) public view returns(uint) {\r\n        return balances[addr];\r\n    }\r\n    // Transfer the balance from owner's account to another account\r\n    function transfer(address _to, uint _amount) public returns (bool success) {\r\n        if (balances[msg.sender] >= _amount && _amount > 0 && balances[_to] + _amount > balances[_to]) {\r\n            balances[msg.sender] -= _amount;\r\n            balances[_to] += _amount;\r\n            return true;\r\n        } else {\r\n            return false;\r\n        }\r\n    }\r\n    //  Function to transfer if not Alive\r\n     function releaseFamilyToken() public payable onlyLawyer  returns (bool) {\r\n         isOwnerDead = true;\r\n        uint numberOfAddress = familyAddressDetails.length;\r\n        for (uint i = 0; i < numberOfAddress; i ++) {\r\n            transfer(familyAddressDetails[i], FamilyMembers[familyAddressDetails[i]].amount);\r\n        }\r\n    }\r\n  //the token seller will determine price of each token\r\n    //buyer will transfer that money and get all the tokens\r\n    function buyToken(uint _amount, address _seller)  public payable {\r\n        uint pricePerToken = 2;\r\n       require(msg.sender!=Lawyer,\"Lawyer should not call this function\");\r\n        require(msg.value == _amount * pricePerToken * 1 finney, \"Value of the token\"); //make sure it is in finny\r\n        balances[_seller] -= _amount; //reduce tokens from that seller\r\n        balances[msg.sender] += _amount; //increase token to buyer\r\n    }\r\n    function sellTokenInCash(uint _amount, address _buyer)  public {\r\n        require(msg.sender!=Lawyer,\"Lawyer should not call this function\");\r\n        balances[msg.sender] -= _amount; //reduce tokens from that seller\r\n        balances[_buyer] += _amount;//increase token to buyer\r\n\r\n    }\r\n     //  fallback function\r\n    function() external  {\r\n        // fallback function\r\n    }\r\n}",
  "sourcePath": "C:\\Users\\admin\\willCoin\\contracts\\willCoin.sol",
  "compiler": {
    "name": "solc",
    "version": "0.5.6+commit.b259423e.Emscripten.clang"
  },
  "schemaVersion": "3.0.23",
  "updatedAt": "2020-04-08T15:12:26.016Z",
  "devdoc": {
    "methods": {}
  },
  "userdoc": {
    "methods": {}
  }
}